:041000000BEF08F0FA
:101008003F82FACF09F0FBCF0AF017ED08F073EF33
:101018000CF00031323346343536453738394441DF
:101028003042432000000600E9CF0BF0EACF0CF075
:10103800E1CF0DF0E2CF0EF0D9CF0FF0DACF10F0FC
:10104800F3CF11F0F4CF12F0F6CF13F0F7CF14F07E
:10105800F8CF15F0F5CF16F0F2A489D0480ED76E68
:10106800E50ED66E3E283E6E3B0E3E6410D0000E56
:101078003E6E3C283C6E3B0E3C6409D0000E3C6E34
:101088003A283A6E170E3A6402D0000E3A6E3AC009
:1010980001F0026A000E046E0A0E036EE0EC0AF01C
:1010A80001501A6E1A500A0DF35000083A24176EB0
:1010B8003CC001F0026A000E046E0A0E036EE0ECFA
:1010C8000AF001501B6E1B500A0DF35000083C2417
:1010D800186E3EC001F0026A000E046E0A0E036E1E
:1010E800E0EC0AF001501C6E1C500A0DF350000889
:1010F8003E24196E800E07EC0CF0740E96EC0AF084
:10110800690E96EC0AF06D0E96EC0AF0650E96ECF8
:101118000AF0200E96EC0AF03D0E96EC0AF0200E2E
:1011280096EC0AF01A5022EC0BF096EC0AF01750E5
:1011380022EC0BF096EC0AF03A0E96EC0AF01B50F3
:1011480022EC0BF096EC0AF0185022EC0BF096EC1F
:101158000AF03A0E96EC0AF01C5022EC0BF096ECD2
:101168000AF0195022EC0BF096EC0AF0F29416C033
:10117800F5FF15C0F8FF14C0F7FF13C0F6FF12C043
:10118800F4FF11C0F3FF10C0DAFF0FC0D9FF0EC083
:10119800E2FF0DC0E1FF0CC0EAFF0BC0E9FF0AC087
:1011A800FBFF09C0FAFF3F92110020EE60F010EE3D
:1011B800C8F0210EDBCFE3FFE806FCE2800ECFEC9F
:1011C8000BF0000E0001F16F130E0001F16501D064
:1011D80013D00001F151010DC80EF324D96E000E91
:1011E800F420DA6EDF500001EA6F0001EA514CEC9E
:1011F8000AF00001F12BE8D7C00ECFEC0BF018EC89
:101208000DF00001F26F0001F2514CEC0AF0000100
:10121800F25196EC0BF00001EB6F18EC0DF00001A9
:10122800F26F0001F2514CEC0AF00001F25196EC19
:101238000BF00001EC6F18EC0DF00001F26F0001EB
:10124800F2514CEC0AF00001F25196EC0BF000015F
:10125800ED6F18EC0DF00001F26F0001F2514CEC4B
:101268000AF00001F25196EC0BF00001EE6F18EC59
:101278000DF00001F26F0001F2514CEC0AF0000190
:10128800F25196EC0BF00001EF6F18EC0DF0000135
:10129800F26F0001F2514CEC0AF00001F25196ECA9
:1012A8000BF00001F06F0001EB510A0DF350000143
:1012B800EC253A6E0001ED510A0DF3500001EE25C0
:1012C8003C6E0001EF510A0DF3500001F0253E6E0F
:1012D800010E1E6EF40E1D6E37EC0DF0010ECFECF4
:1012E8000BF0120020EE82F010EEC8F01E0EDBCFDD
:1012F800E3FFE806FCE2800ECFEC0BF0000E0001E5
:10130800EC6F130E0001EC6501D013D00001EC5115
:10131800010DC80EF324D96E000EF420DA6EDF50EA
:101328000001E76F0001E7514CEC0AF00001EC2BDB
:10133800E8D7C00ECFEC0BF018EC0DF00001ED6F04
:101348000001ED514CEC0AF00001ED5196EC0BF068
:101358000001E86F18EC0DF00001ED6F0001ED5190
:101368004CEC0AF00001ED5196EC0BF00001E96F2E
:1013780018EC0DF00001ED6F0001ED514CEC0AF096
:101388000001ED5196EC0BF00001EA6F18EC0DF03E
:101398000001ED6F0001ED514CEC0AF00001ED5138
:1013A80096EC0BF00001EB6F0001E8510A0DF350C9
:1013B8000001E9253B6E0001EA510A0DF3500001D6
:1013C800EB253D6E010E1E6EF40E1D6E37EC0DF012
:1013D800010ECFEC0BF012009290030E1E6EE80E79
:1013E8001D6E37EC0DF0000E226E0C0E226401D03B
:1013F80010D08080000E1E6E010E1D6E37EC0DF0B1
:101408008090000E1E6E120E1D6E37EC0DF0222A13
:10141800ECD7030E1E6EE80E1D6E37EC0DF0000EB5
:10142800226E0C0E226401D010D08080000E1E6E39
:10143800020E1D6E37EC0DF08090000E1E6E110E20
:101448001D6E37EC0DF0222AECD7030E1E6EE80E47
:101458001D6E37EC0DF0000E226E0C0E226401D0CA
:1014680010D08080000E1E6E010E1D6E37EC0DF040
:101478008090000E1E6E120E1D6E37EC0DF0222AA3
:10148800ECD74E0E1E6E200E1D6E37EC0DF01200BE
:101498001F6E838C3F0E1E6E550EE82EFED71E2E35
:1014A800FCD700F01FC020F020380F0B206E205012
:1014B8000F0B836E7D0E1E6EAC0EE82EFED71E2E11
:1014C800FCD7838C7D0E1E6EAC0EE82EFED71E2E2A
:1014D800FCD751EC0DF07D0E1E6EAC0EE82EFED73B
:1014E8001E2EFCD71FC020F020500F0B836E7D0EE0
:1014F8001E6EAC0EE82EFED71E2EFCD7838C9C0EDB
:101508001E6ED70EE82EFED71E2EFCD700F051EC2B
:101518000DF09C0E1E6ED70EE82EFED71E2EFCD7A1
:1015280000F01200036E838C3F0E026E550EE82EFB
:10153800FED7022EFCD700F003C004F004380F0BCE
:10154800046E04500F0B836E7D0E026EAC0EE82EF7
:10155800FED7022EFCD7838C7D0E026EAC0EE82ED1
:10156800FED7022EFCD762EC0DF07D0E026EAC0E9B
:10157800E82EFED7022EFCD703C004F004500F0B50
:10158800836E7D0E026EAC0EE82EFED7022EFCD7BF
:10159800838C9C0E026ED70EE82EFED7022EFCD747
:1015A80000F062EC0DF09C0E026ED70EE82EFED70E
:1015B800022EFCD700F01200000E066E04AE06D014
:1015C800036C041ED8B0042A010E066E02AE06D0C3
:1015D800016C021ED8B0022A010E061A000E086E0F
:1015E800000E076E03500410D8B41CD0010E056E0F
:1015F80004D0D89003360436052A04AEFAD7D8901A
:10160800073608360350015C04500258D8A005D0AC
:101618000350015E0450025A0780D8900432033206
:10162800052EEDD70650D8B404D0076C081ED8B0E4
:10163800082A07C001F008C002F01200016E17D096
:10164800300E13D0310E11D0320E0FD0330E0DD014
:10165800340E0BD0350E09D0360E07D0370E05D014
:10166800380E03D0390E01D03F0E026E20D0015043
:10167800000AD8B4E5D7010AD8B4E4D7030AD8B425
:10168800E3D7010AD8B4E2D7070AD8B4E1D7010AE8
:10169800D8B4E0D7030AD8B4DFD7010AD8B4DED764
:1016A8000F0AD8B4DDD7010AD8B4DCD7DDD7025089
:1016B8001200000E956E000E836E8398839C839AA9
:1016C800000E236E000E226E23BE06D023500FE1BB
:1016D800640E225CD8B00BD09C0E216ED70EE82E7B
:1016E800FED7212EFCD700F0224A232AEDD7330E4D
:1016F800CFEC0BF0320ECFEC0BF0280ECFEC0BF04A
:101708000E0ECFEC0BF0060ECFEC0BF0010ECFEC6B
:101718000BF09C0E216ED70EE82EFED7212EFCD79B
:1017280000F012001D6E15D0010E11D0020E0FD060
:10173800030E0DD0040E0BD0050E09D0060E07D0EF
:10174800070E05D0080E03D0090E01D0000E1E6E3C
:1017580020D01D50300AD8B4F9D7010AD8B4E4D73C
:10176800030AD8B4E3D7010AD8B4E2D7070AD8B431
:10177800E1D7010AD8B4E0D7030AD8B4DFD7010A01
:10178800D8B4DED70F0AD8B4DDD7010AD8B4DCD76D
:10179800DDD71E5012001F6E839C3F0E1E6E550E25
:1017A800E82EFED71E2EFCD700F01FC020F02038F0
:1017B8000F0B206E20500F0B836E7D0E1E6EAC0E2D
:1017C800E82EFED71E2EFCD751EC0DF07D0E1E6EB6
:1017D800AC0EE82EFED71E2EFCD71FC020F02050DE
:1017E8000F0B836E7D0E1E6EAC0EE82EFED71E2EDE
:1017F800FCD751EC0DF07D0E1E6EAC0EE82EFED718
:101808001E2EFCD71200036E839C3F0E026E550EEF
:10181800E82EFED7022EFCD700F003C004F00438EF
:101828000F0B046E04500F0B836E7D0E026EAC0E10
:10183800E82EFED7022EFCD762EC0DF07D0E026E6C
:10184800AC0EE82EFED7022EFCD703C004F00450DD
:101858000F0B836E7D0E026EAC0EE82EFED7022EA5
:10186800FCD762EC0DF07D0E026EAC0EE82EFED7B2
:10187800022EFCD71200010E266E0F0EC16E070E47
:10188800B46E5DEC0BF0D9EC08F076EC09F073EC73
:101898000DF03B503A18D8A41AD03D503C18D8A4A3
:1018A80016D0020E2618D8A404D0CAEC0CF0010EEB
:1018B800256E2504D8A404D081EC0DF0010E246E09
:1018C8002404D8A4E6D7F0EC09F0010E06D02604CB
:1018D800D8A4DFD7F1EC0CF0020E266EDAD73E6AF8
:1018E8003D6A3C6A3B6A3A6A3E0EF66E190EF76E1E
:1018F800000EF86E00EE60F010EE55F00900F5CF1E
:10190800EEFFE550E150FAE1160EF66E1B0EF76E8B
:10191800000EF86E00EE27F010EE13F00900F5CF78
:10192800EEFFE550E150FAE13F903F92000EF86E6D
:1019380000013FEF0CF05365742074696D65204811
:10194800482F4D4D2F535320202020202020202089
:1019580020203A20202020005365742074696D658A
:1019680020746F2064697370656E73652020202071
:1019780020202020203A0044697370656E73696ED8
:1019880067202020202020202020000020EEA1F029
:1019980010EEB5F0130EDBCFE3FFE806FCE2C00E55
:1019A800CFEC0BF0000E0001CA6F130E0001CA65E0
:1019B80001D012000001CA51010DB50EF324D96EF1
:1019C800000EF420DA6EDF500001C96F0001C95122
:1019D8004CEC0AF00001CA2BE8D720EE27F010EEF5
:1019E800B5F0120EDBCFE3FFE806FCE2C00ECFEC49
:1019F8000BF0000E0001C96F130E0001C96501D07C
:101A080012000001C951010DB50EF324D96E000E64
:101A1800F420DA6EDF500001C86F0001C8514CECA9
:101A28000AF00001C92BE8D71B0EF66E100EF76EF0
:101A380020EEB5F0110E0900F5CFDEFFE806FBE257
:101A480081AAFED781500F0B0001C76F81BAFED75C
:101A58000001C751010DB50EF324D96E000EF42014
:101A6800DA6EDF5012001D501E10D8B41200000E9E
:101A7800216E000E206E0AD0100E1F6E940EE82EF6
:101A8800FED71F2EFCD700D0204A212A1D50205CEB
:101A98001E502158D8B01200EFD783887D0E1D6ED6
:101AA800AC0EE82EFED71D2EFCD783987D0E1D6E3A
:101AB800AC0EE82EFED71D2EFCD7120083887D0EB3
:101AC800016EAC0EE82EFED7012EFCD783987D0E52
:101AD800016EAC0EE82EFED7012EFCD71200D08E78
:101AE800F28E070ED56E840EF16E480ED76EE50E97
:101AF800D66ED58EF28AF2941200929A808A010EDE
:101B08001E6EF40E1D6E37EC0DF0809A12005761B0
:101B18006974696E67202020202020202020202042
:021B28000000BB
:020000040020DA
:08000000FFFFFFFFFFFFFFFF00
:020000040030CA
:0E00000000051F1FFF8385FF0FC00FE00F409C
:00000001FF
